:100000000C9434000C9451000C9451000C94510049
:100010000C9451000C9451000C9451000C9451001C
:100020000C9451000C9451000C9441050C94510017
:100030000C9451000C9451000C9451000C945100FC
:100040000C9451000C9451000C9451000C945100EC
:100050000C9451006303C703600467046E047504C5
:100060007F0416048704200511241FBECFE5D8E0C5
:10007000DEBFCDBF12E0A0E6B0E0EEEFF3E102C0DC
:1000800005900D92AA38B107D9F722E0AAE8B2E0AC
:1000900001C01D92AD38B207E1F70E9453000C94E5
:1000A000FD090C940000CF93DF93CDB7DEB72897FE
:1000B0000FB6F894DEBF0FBECDBF60E083E40E94B0
:1000C000830761E083E40E94830762E083E40E9487
:1000D00083070E940C070E9447060E94CB0980E715
:1000E00090E00E94640761E082E00E94750781E869
:1000F00090E00E9464072FEF39E688E121503040FC
:100100008040E1F700C000000E94710780E091E0AC
:100110000E947009813039F481E091E00E947009F9
:10012000813009F4D5C08DE890E00E94640761E059
:1001300082E00E94750787E990E00E9464079FEFC4
:1001400029E638E1915020403040E1F700C000003E
:100150000E94710782EA90E00E94640761E082E0F9
:100160000E94750781EB90E00E9464078FEF8983FE
:100170008A838B838C8310E02AC00E94840601C08E
:100180008FEF8F3FD1F3E1E0F0E0EC0FFD1FE10FC7
:10019000F11D80830E9458078FEF92E527E0815080
:1001A00090402040E1F700C000006CE0610F82E069
:1001B0000E9475078AE20E9458073FEF80E792E0AD
:1001C000315080409040E1F700C000001F5F1430C4
:1001D000B8F244E050E0BE016F5F7F4F82E091E0F3
:1001E0000E94A40961E080E091E00E9492090E94CF
:1001F00071078DEB90E00E9464072FEF34E38CE0F1
:10020000215030408040E1F700C000000E9471079B
:1002100088EC90E00E94640761E082E00E9475072C
:1002200087ED90E00E94640710E02AC00E948406D7
:1002300001C08FEF8F3FD1F3E1E0F0E0EC0FFD1F45
:10024000E10FF11D80830E9458079FEF22E537E000
:10025000915020403040E1F700C000006CE0610F99
:1002600082E00E9475078AE20E9458078FEF90E7AC
:1002700022E0815090402040E1F700C000001F5F65
:100280001430B8F244E050E0BE016F5F7F4F86E06B
:1002900091E00E94A40961E081E091E00E9492094E
:1002A0000E9471078DEB90E00E9464073FEF84E3AA
:1002B0009CE0315080409040E1F700C000000E9477
:1002C000710760E08AE091E00E949209F12C05C07C
:1002D0008AE091E00E947009F82E00E080918A0285
:1002E000813001F50E94ED0910928C0210928B0270
:1002F00010928A0261E083E40E948B0760E083E44D
:100300000E948B070E94710783EE90E00E946407B1
:100310002FEF39E688E1215030408040E1F700C0FE
:10032000000000E0E12C1FEFBCC191E0F91227C0F2
:100330000E94710783EF90E00E94640761E082E011
:100340000E94750781E091E00E94640762E083E407
:100350000E9487072AEA36EE86E991E02150304074
:1003600080409040D9F7000062E083E40E948B0750
:1003700060E08AE091E00E949209E12CF12C0E9459
:10038000710781E191E00E94640761E082E00E94D0
:1003900075078FE191E00E94640703C00E94840604
:1003A000182F1F3FD9F380ED810F823088F00E9413
:1003B00071078FE291E00E9464072FEF39E688E130
:1003C000215030408040E1F700C000001FEF69C1BC
:1003D0008FEF8D838E838F83888789838A838B8336
:1003E0008C83103309F4ABC0113309F455C159C1E2
:1003F0000E9471078CE391E00E94640761E082E053
:100400000E94750787E491E00E9464079FEF21EE48
:1004100034E0915020403040E1F700C0000010E08F
:100420002AC00E94840601C08FEF8F3FD1F3E5E020
:10043000F0E0EC0FFD1FE10FF11D80830E945807D3
:100440008FEF92E527E0815090402040E1F700C017
:1004500000006CE0610F82E00E9475078AE20E9452
:1004600058073FEF80E792E0315080409040E1F73D
:1004700000C000001F5F1430B8F244E050E0BE013D
:100480006F5F7F4F82E091E00E94790944E0BE01F6
:100490006F5F7F4FCE0105960E945805813011F5A0
:1004A0000E94710783E591E00E94640761E082E0A9
:1004B0000E9475078CE391E00E9464072FEF34E3FC
:1004C0008CE0215030408040E1F700C0000060E047
:1004D00083E40E9487070E94D7090E947107E12CDC
:1004E00081E02BC0E3940E9471078EE591E00E94A9
:1004F000640761E082E00E94750789E691E00E944E
:10050000640783E38E190E9458079FEF29E638E1BC
:10051000915020403040E1F700C000000E94710778
:1005200082E08E1548F461E08AE091E00E94920931
:100530001FEFFF24F394B5C0802F1FEF01C0802F61
:10054000813009F055CF082FACC00E94710785E7B4
:1005500091E00E94640761E082E00E94750780E8F4
:1005600091E00E9464079FEF21EE34E0915020401B
:100570003040E1F700C0000010E02AC00E9484066D
:1005800001C08FEF8F3FD1F3E5E0F0E0EC0FFD1FEE
:10059000E10FF11D80830E9458078FEF92E527E05D
:1005A000815090402040E1F700C000006CE0610FF6
:1005B00082E00E9475078AE20E9458073FEF80E7B9
:1005C00092E0315080409040E1F700C000001F5F92
:1005D0001430B8F244E050E0BE016F5F7F4F86E018
:1005E00091E00E94790944E0BE016F5F7F4FCE0128
:1005F00005960E945805813011F50E94710783E528
:1006000091E00E94640761E082E00E94750785E73F
:1006100091E00E9464072FEF34E38CE021503040DA
:100620008040E1F700C0000061E083E40E9487079A
:100630000E94D7090E947107E12C82E02BC0E3944D
:100640000E9471078CE891E00E94640761E082E0FB
:100650000E94750789E691E00E94640783E38E1982
:100660000E9458079FEF29E638E191502040304022
:10067000E1F700C000000E94710782E08E1548F487
:1006800061E08AE091E00E9492091FEFFF24F39459
:1006900008C0802F1FEF01C0802F823009F055CF96
:1006A000082F002309F441CEEE24E394E4C18E2DFB
:1006B00090E0FC013197EA30F10508F0DCC1E65D1D
:1006C000FF4F0C94F7090E94710787E991E00E949F
:1006D000640761E082E00E947507013029F487EA2F
:1006E00091E00E94640706C0023021F487EB91E09C
:1006F0000E946407802F0E946E05182F9FEF20E74D
:1007000032E0915020403040E1F700C000008133DA
:10071000F1F0823309F1833319F1843311F402309B
:1007200021F1143311F4013029F11F3F31F10E94FE
:10073000710787EC91E00E9464078FEF94E32CE04F
:10074000815090402040E1F700C0000016C00F2EFD
:10075000F3E0EF2EF02D11C06894EE24E2F80DC006
:100760000F2EF5E0EF2EF02D08C00F2EF6E0EF2E45
:10077000F02D03C06894EE24E1F81153143008F40E
:100780007AC180918A02882309F49DCF74C10E94A6
:10079000710783ED91E00E94640761E082E00E94AE
:1007A000750786EE91E00E946407802F0E946E0517
:1007B000182F3FEF80E792E0315080409040E1F702
:1007C00000C000001133C1F01233D9F01333F1F03F
:1007D000143301F11F3F01F10E94710787EC91E092
:1007E0000E9464072FEF34E38CE0215030408040BA
:1007F000E1F700C0000010C00F2EF6E0EF2EF02D44
:100800000BC00F2EF7E0EF2EF02D06C06894EE24FB
:10081000E3F802C0EE24E3941153143008F42BC122
:1008200080918A02882309F4B2CF25C10E94710702
:1008300087EF91E00E94640761E082E00E94750703
:100840008AE092E00E946407802F0E946E05182FB4
:100850009FEF20E732E0915020403040E1F700C0A8
:1008600000008133B1F08233C9F08033E1F08F3F73
:10087000E9F00E94710787EC91E00E9464078FEF16
:1008800094E32CE0815090402040E1F700C000004C
:100890000DC00F2EFAE0EF2EF02D08C00F2EF9E05C
:1008A000EF2EF02D03C06894EE24E1F810531330BE
:1008B00008F4E1C080918A02882309F4B7CFDBC035
:1008C000602F83E00E948E05EE24E394D4C0602F55
:1008D00084E00E948E05EE24E394CDC0602F85E075
:1008E0000E948E05EE24E394C6C0602F86E00E942D
:1008F0008E05023009F0B0C0EE24E394BCC0602F36
:1009000087E00E948E056894EE24E1F8B4C0602F61
:1009100089E00E948E056894EE24E3F8ACC00E9442
:1009200071078BE192E00E9464078FED0E945807E7
:1009300083E40E9458076BE081E00E9475073FEF57
:1009400081EE94E0315080409040E1F700C000001B
:10095000802F0E946E052FE73AE196E0215030404B
:100960009040E1F700C0000090918A02913009F4B4
:1009700077C010ED180F1A3080F00E94710787ECD5
:1009800091E00E9464072FEF34E38CE02150304067
:100990008040E1F700C0000054C00E945807802F3B
:1009A0000E946E059FE72AE136E0915020403040DA
:1009B000E1F700C0000090918A02913009F454C020
:1009C0000F2EF0EDDF2EF02DD80E99E09D1580F45E
:1009D0000E94710787EC91E00E9464072FEF34E3D7
:1009E0008CE0215030408040E1F700C0000029C079
:1009F0000E945807110FE12EEE0CEE0C1E0DE12E99
:100A0000ED0C80E40E94D2099FEF21EE34E091507A
:100A100020403040E1F700C000008E2D0E94D20936
:100A20000E94710789E292E00E9464078FEF94E3CD
:100A30002CE0815090402040E1F700C0000001C050
:100A4000E12CE11015C080918A02882309F467CF58
:100A50006894EE24E3F80FC06894EE24E1F80BC02C
:100A60006894EE24E3F807C06894EE24E3F803C02A
:100A70006894EE24E3F880918A02813009F017CE61
:100A80002DCC1F920F920FB60F9211248F939F932C
:100A900080918B0290918C02019690938C028093AE
:100AA0008B029F918F910F900FBE0F901F90189502
:100AB000DC0190E00DC0292F30E0FD01E20FF31FB3
:100AC0005081FB01E20FF31F2081521305C09F5F8D
:100AD000941788F381E0089580E00895CF93C82F9C
:100AE0008FEF18C020918B0230918C02283B3B4045
:100AF00010F0C13049F020918B0230918C02203DE2
:100B0000374030F0C23021F491E090938A0204C063
:100B10000E9484068F3F31F3CF910895EF92FF92A8
:100B20000F931F93CF93DF93D82FF62EE12C00E085
:100B300010E00E947107D53011F128F4D33049F04C
:100B4000D43091F047C0D73081F120F1D930C1F1D4
:100B500041C08AE392E00E9464070F2EF1E3EF2E7A
:100B6000F02D01E211E136C083E492E00E946407B7
:100B70000F2EF2E3EF2EF02D02E212E12BC08CE4F7
:100B800092E00E9464070F2EF3E3EF2EF02D03E2B4
:100B900013E120C085E592E00E9464070F2EF4E384
:100BA000EF2EF02D04E214E115C08EE592E00E94D4
:100BB00064070F2EF5E3EF2EF02D05E215E10AC0D4
:100BC00084E692E00E9464070F2EF6E3EF2EF02DEC
:100BD00006E216E1812F0E94D2092FEF80E792E012
:100BE000215080409040E1F700C000008FEF0E944C
:100BF000D209813029F481E792E00E94640704C0A1
:100C000084E792E00E94640761E082E00E94750739
:100C100088E792E00E9464078F2D0E946E05C82F1E
:100C20002FEF80E792E0215080409040E1F700C034
:100C30000000C13321F4802F0E94D20919C0C233B1
:100C400021F48E2D0E94D20913C0CF3F89F0C0330A
:100C500079F00E94710787EC91E00E9464072FEF02
:100C600084E39CE0215080409040E1F700C0000008
:100C7000C053C33028F080918A02882309F459CFE9
:100C8000DF91CF911F910F91FF90EF90089541E078
:100C900060E084E40E948F0741E061E084E40E9408
:100CA0008F0741E062E084E40E948F0741E063E047
:100CB00084E40E948F0740E064E084E40E948F0790
:100CC00040E065E084E40E948F0740E066E084E451
:100CD0000E948F0740E067E084E40E948F0741E0B4
:100CE00064E084E40E94DF0841E065E084E40E945F
:100CF000DF0841E066E084E40E94DF0841E067E04D
:100D000084E40E94DF080895FF920F931F93CF930E
:100D1000DF93CDB7DEB760970FB6F894DEBF0FBE96
:100D2000CDBF80E1E0E6F0E0DE01119601900D928A
:100D30008A95E1F7FF24FA9400E03CC041E060E0CE
:100D400084E40E94FF0741E061E084E40E94FF0721
:100D500041E062E084E40E94FF0741E063E084E454
:100D60000E94FF078FE39CE90197F1F700C00000A4
:100D700040E0602F84E40E94FF0710E018C064E0A8
:100D8000610F84E40E946F08811110C0E02FF0E031
:100D9000EE0FFF1FEE0FFF1F81E090E08C0F9D1FF5
:100DA000E80FF91FE10FF11DF08003C01F5F143041
:100DB00030F30F5F043010F28F2D60960FB6F89469
:100DC000DEBF0FBECDBFDF91CF911F910F91FF907E
:100DD000089541E060E082E40E94FF078FE99FE010
:100DE0000197F1F700C0000040E060E082E40E945B
:100DF000FF078FE99FE00197F1F700C00000089519
:100E0000682F81E40E94CC0840E061E082E40E9407
:100E1000FF070E94E906089541E060E081E40E9436
:100E20008F0741E061E081E40E948F0741E062E0CA
:100E300081E40E948F0741E063E081E40E948F0714
:100E400041E064E081E40E948F0741E065E081E4D5
:100E50000E948F0741E066E081E40E948F0741E035
:100E600067E081E40E948F0741E060E082E40E9435
:100E70008F0741E062E082E40E948F0741E061E079
:100E800082E40E948F0740E062E082E40E94FF0754
:100E900088E30E94000781E00E9400078EE00E9424
:100EA00000078FE19EE40197F1F700C0000008956C
:100EB000682F81E40E94CC0841E061E082E40E9456
:100EC000FF070E94E9060895CF93DF93EC0103C06A
:100ED0000E945807219688818111FACFDF91CF9126
:100EE000089581E00E9400070895813019F48FE78A
:100EF000860F06C0823019F48FEB860F01C080E8A0
:100F00000E940007089541E00E948F07089541E084
:100F10000E94FF07089540E00E94FF070895823471
:100F200019F118F4813439F008958334B1F184341F
:100F300009F44CC00895413059F42AB381E090E09F
:100F400002C0880F991F6A95E2F7822B8ABB089529
:100F50002AB381E090E002C0880F991F6A95E2F7FA
:100F6000809582238ABB0895413059F427B381E0EC
:100F700090E002C0880F991F6A95E2F7822B87BB29
:100F8000089527B381E090E002C0880F991F6A9509
:100F9000E2F78095822387BB0895413059F424B34A
:100FA00081E090E002C0880F991F6A95E2F7822BDA
:100FB00084BB089524B381E090E002C0880F991F9C
:100FC0006A95E2F78095822384BB0895413059F4F5
:100FD00021B381E090E002C0880F991F6A95E2F783
:100FE000822B81BB089521B381E090E002C0880F7D
:100FF000991F6A95E2F78095822381BB0895823418
:1010000019F118F4813439F008958334B1F184343E
:1010100009F44CC00895413059F42BB381E090E0BD
:1010200002C0880F991F6A95E2F7822B8BBB089547
:101030002BB381E090E002C0880F991F6A95E2F718
:10104000809582238BBB0895413059F428B381E009
:1010500090E002C0880F991F6A95E2F7822B88BB47
:10106000089528B381E090E002C0880F991F6A9527
:10107000E2F78095822388BB0895413059F425B367
:1010800081E090E002C0880F991F6A95E2F7822BF9
:1010900085BB089525B381E090E002C0880F991FB9
:1010A0006A95E2F78095822385BB0895413059F413
:1010B00022B381E090E002C0880F991F6A95E2F7A1
:1010C000822B82BB089522B381E090E002C0880F9A
:1010D000991F6A95E2F78095822382BB0895823436
:1010E000E9F018F4813431F055C0833459F1843477
:1010F000E9F150C049B381E090E09C01062E02C0A6
:10110000220F331F0A94E2F7842F90E08223932367
:1011100002C0959587956A95E2F7089546B381E0F8
:1011200090E09C01062E02C0220F331F0A94E2F7C2
:10113000842F90E08223932302C0959587956A952A
:10114000E2F7089543B381E090E09C01062E02C0CF
:10115000220F331F0A94E2F7842F90E08223932317
:1011600002C0959587956A95E2F7089540B381E0AE
:1011700090E09C01062E02C0220F331F0A94E2F772
:10118000842F90E08223932302C0959587956A95DA
:10119000E2F7089580E00895823459F018F481341C
:1011A00031F00895833439F0843439F008956BBBFD
:1011B000089568BB089565BB089562BB08958234A5
:1011C00061F118F4813441F00895833409F446C084
:1011D000843409F464C00895413099F480B78B7F5A
:1011E00080BF2AB381E090E002C0880F991F6A9502
:1011F000E2F7982F909592239ABB9BB3892B8BBBD8
:1012000008952BB381E090E002C0880F991F6A9582
:10121000E2F7809582238BBB0895413099F480B723
:101220008B7F80BF27B381E090E002C0880F991FB9
:101230006A95E2F7982F9095922397BB98B3892BE4
:1012400088BB089528B381E090E002C0880F991F01
:101250006A95E2F78095822388BB0895413099F41E
:1012600080B78B7F80BF24B381E090E002C0880FFD
:10127000991F6A95E2F7982F9095922394BB95B3A6
:10128000892B85BB089525B381E090E002C0880FCB
:10129000991F6A95E2F78095822385BB08954130B6
:1012A00099F480B78B7F80BF21B381E090E002C0CA
:1012B000880F991F6A95E2F7982F9095922391BB1A
:1012C00092B3892B82BB089522B381E090E002C0E3
:1012D000880F991F6A95E2F78095822382BB089553
:1012E000E199FECF9FBB8EBB8CB381608CBB8DB36D
:1012F0000895DC01E199FECF20E030E00FC0F90154
:10130000EA0FFB1FFFBBEEBB9CB391609CBBFB01D4
:10131000E20FF31F9DB390832F5F3F4F24173507D4
:1013200070F30895E199FECF9FBB8EBB8CB38160B3
:101330008CBB8DB3861739F06DBB8CB384608CBBCE
:101340008CB382608CBB0895CF93DF93DC01EA01FC
:1013500020E030E01AC0E199FECFC9018A0F9B1F3F
:101360009FBB8EBB9CB391609CBB5DB3FB01E20F46
:10137000F31F9081591739F09DBB9CB394609CBBBF
:101380009CB392609CBB2F5F3F4F2C173D0718F317
:10139000DF91CF91089587B3806B87BB8DB1816555
:1013A0008DB908958FB9779BFECF8FB108958EE4E4
:1013B0008CBF83B7886083BF83B78F7B83BF83B7BE
:1013C000816083BF83B78D7F83BF83B7846083BF12
:1013D000789489B7826089BF089583B78E7F83BF71
:1013E00083B78D7F83BF83B78B7F83BF0895EE0F55
:0E13F000FF1F0590F491E02D0994F894FFCFB3
:1013FE003738392F3435362A3132332D41303D2BA3
:10140E0057656C636F6D6520746F20736D617274B8
:10141E0000686F6D652073797374656D004C6F672E
:10142E00696E20666F720066697273742074696DDE
:10143E0065005365742041646D696E20706173732D
:10144E000041646D696E20706173733A0050617370
:10145E007320536176656400536574204775657318
:10146E0074205061737300477565737420506173F7
:10147E00733A0053657373696F6E2054696D656FAF
:10148E007574004C6F67696E20626C6F636B656478
:10149E000077616974203230207365636F6E6473F8
:1014AE000053656C656374206D6F6465203A00307F
:1014BE003A41646D696E20313A4775657374005711
:1014CE00726F6E6720696E7075742E0041646D695F
:1014DE006E206D6F646500456E7465722050617389
:1014EE00733A0052696768742070617373005772A3
:1014FE006F6E672050617373005472696573206C50
:10150E006566743A004775657374206D6F64650087
:10151E00456E74657220706173733A0057726F6E08
:10152E0067207061737300313A526F6F6D312032E4
:10153E003A526F6F6D3200333A526F6F6D33203403
:10154E003A4D6F72652000333A526F6F6D3320340F
:10155E003A526F6F6D340057726F6E6720696E70FE
:10156E00757400313A526F6F6D3420202020323A5C
:10157E00545620202000333A41697220436F6E6426
:10158E002E343A52455400313A5365742074656DC9
:10159E0070657261747572652000323A436F6E74B5
:1015AE00726F6C2020303A5245540053657420748B
:1015BE00656D702E3A5F5F200054656D70657261C7
:1015CE00747572652053656E7400526F6F6D3120A5
:1015DE00533A00526F6F6D3220533A00526F6F6D57
:1015EE003320533A00526F6F6D3420533A005456E5
:1015FE0020533A0041697220436F6E642E20533A95
:10160E00004F4E004F464600312D4F6E20322D4F6B
:0A161E00666620302D52455400008E
:00000001FF
